{
  "contractName": "Attestation",
  "abi": [
    {
      "constant": true,
      "inputs": [],
      "name": "degreeCount",
      "outputs": [
        {
          "name": "",
          "type": "uint256"
        }
      ],
      "payable": false,
      "stateMutability": "view",
      "type": "function"
    },
    {
      "constant": true,
      "inputs": [],
      "name": "universityCount",
      "outputs": [
        {
          "name": "",
          "type": "uint256"
        }
      ],
      "payable": false,
      "stateMutability": "view",
      "type": "function"
    },
    {
      "constant": true,
      "inputs": [
        {
          "name": "",
          "type": "uint256"
        }
      ],
      "name": "degrees",
      "outputs": [
        {
          "name": "id",
          "type": "uint256"
        },
        {
          "name": "studentId",
          "type": "uint256"
        },
        {
          "name": "universityId",
          "type": "uint256"
        },
        {
          "name": "verified",
          "type": "bool"
        }
      ],
      "payable": false,
      "stateMutability": "view",
      "type": "function"
    },
    {
      "constant": true,
      "inputs": [
        {
          "name": "",
          "type": "address"
        }
      ],
      "name": "students",
      "outputs": [
        {
          "name": "id",
          "type": "uint256"
        },
        {
          "name": "name",
          "type": "string"
        },
        {
          "name": "dob",
          "type": "string"
        },
        {
          "name": "email",
          "type": "string"
        },
        {
          "name": "gpa",
          "type": "string"
        },
        {
          "name": "universityId",
          "type": "uint256"
        },
        {
          "name": "studentAddr",
          "type": "address"
        },
        {
          "name": "isInit",
          "type": "bool"
        }
      ],
      "payable": false,
      "stateMutability": "view",
      "type": "function"
    },
    {
      "constant": true,
      "inputs": [],
      "name": "studentCount",
      "outputs": [
        {
          "name": "",
          "type": "uint256"
        }
      ],
      "payable": false,
      "stateMutability": "view",
      "type": "function"
    },
    {
      "constant": true,
      "inputs": [
        {
          "name": "",
          "type": "address"
        }
      ],
      "name": "universities",
      "outputs": [
        {
          "name": "id",
          "type": "uint256"
        },
        {
          "name": "name",
          "type": "string"
        },
        {
          "name": "location",
          "type": "string"
        },
        {
          "name": "email",
          "type": "string"
        },
        {
          "name": "universityAddr",
          "type": "address"
        },
        {
          "name": "isInit",
          "type": "bool"
        }
      ],
      "payable": false,
      "stateMutability": "view",
      "type": "function"
    },
    {
      "inputs": [],
      "payable": false,
      "stateMutability": "nonpayable",
      "type": "constructor"
    },
    {
      "constant": false,
      "inputs": [
        {
          "name": "name",
          "type": "string"
        },
        {
          "name": "location",
          "type": "string"
        },
        {
          "name": "email",
          "type": "string"
        }
      ],
      "name": "addUniversity",
      "outputs": [],
      "payable": false,
      "stateMutability": "nonpayable",
      "type": "function"
    },
    {
      "constant": false,
      "inputs": [
        {
          "name": "name",
          "type": "string"
        },
        {
          "name": "dob",
          "type": "string"
        },
        {
          "name": "email",
          "type": "string"
        },
        {
          "name": "gpa",
          "type": "string"
        },
        {
          "name": "universityId",
          "type": "uint256"
        }
      ],
      "name": "addStudent",
      "outputs": [],
      "payable": false,
      "stateMutability": "nonpayable",
      "type": "function"
    },
    {
      "constant": false,
      "inputs": [
        {
          "name": "degreeId",
          "type": "uint256"
        }
      ],
      "name": "verifyDegree",
      "outputs": [],
      "payable": false,
      "stateMutability": "nonpayable",
      "type": "function"
    }
  ],
  "bytecode": "0x608060405234801561001057600080fd5b5060008081905550600060018190555060006002819055506117af806100376000396000f300608060405260043610610099576000357c0100000000000000000000000000000000000000000000000000000000900463ffffffff16806320f722a31461009e57806330b37026146100cb5780633660096b146101c0578063418374f3146101eb57806381f1c3bc1461021657806395b7900614610270578063a6c807a9146103b5578063e581f9ee14610601578063f09955601461062c575b600080fd5b3480156100aa57600080fd5b506100c960048036038101908080359060200190929190505050610805565b005b3480156100d757600080fd5b506101be600480360381019080803590602001908201803590602001908080601f0160208091040260200160405190810160405280939291908181526020018383808284378201915050505050509192919290803590602001908201803590602001908080601f0160208091040260200160405190810160405280939291908181526020018383808284378201915050505050509192919290803590602001908201803590602001908080601f01602080910402602001604051908101604052809392919081815260200183838082843782019150505050505091929192905050506109e2565b005b3480156101cc57600080fd5b506101d5610d74565b6040518082815260200191505060405180910390f35b3480156101f757600080fd5b50610200610d7a565b6040518082815260200191505060405180910390f35b34801561022257600080fd5b5061024160048036038101908080359060200190929190505050610d80565b604051808581526020018481526020018381526020018215151515815260200194505050505060405180910390f35b34801561027c57600080fd5b506103b3600480360381019080803590602001908201803590602001908080601f0160208091040260200160405190810160405280939291908181526020018383808284378201915050505050509192919290803590602001908201803590602001908080601f0160208091040260200160405190810160405280939291908181526020018383808284378201915050505050509192919290803590602001908201803590602001908080601f0160208091040260200160405190810160405280939291908181526020018383808284378201915050505050509192919290803590602001908201803590602001908080601f016020809104026020016040519081016040528093929190818152602001838380828437820191505050505050919291929080359060200190929190505050610dbd565b005b3480156103c157600080fd5b506103f6600480360381019080803573ffffffffffffffffffffffffffffffffffffffff16906020019092919050505061113f565b60405180898152602001806020018060200180602001806020018881526020018773ffffffffffffffffffffffffffffffffffffffff1673ffffffffffffffffffffffffffffffffffffffff1681526020018615151515815260200185810385528c818151815260200191508051906020019080838360005b8381101561048a57808201518184015260208101905061046f565b50505050905090810190601f1680156104b75780820380516001836020036101000a031916815260200191505b5085810384528b818151815260200191508051906020019080838360005b838110156104f05780820151818401526020810190506104d5565b50505050905090810190601f16801561051d5780820380516001836020036101000a031916815260200191505b5085810383528a818151815260200191508051906020019080838360005b8381101561055657808201518184015260208101905061053b565b50505050905090810190601f1680156105835780820380516001836020036101000a031916815260200191505b50858103825289818151815260200191508051906020019080838360005b838110156105bc5780820151818401526020810190506105a1565b50505050905090810190601f1680156105e95780820380516001836020036101000a031916815260200191505b509c5050505050505050505050505060405180910390f35b34801561060d57600080fd5b50610616611414565b6040518082815260200191505060405180910390f35b34801561063857600080fd5b5061066d600480360381019080803573ffffffffffffffffffffffffffffffffffffffff16906020019092919050505061141a565b604051808781526020018060200180602001806020018673ffffffffffffffffffffffffffffffffffffffff1673ffffffffffffffffffffffffffffffffffffffff16815260200185151515158152602001848103845289818151815260200191508051906020019080838360005b838110156106f75780820151818401526020810190506106dc565b50505050905090810190601f1680156107245780820380516001836020036101000a031916815260200191505b50848103835288818151815260200191508051906020019080838360005b8381101561075d578082015181840152602081019050610742565b50505050905090810190601f16801561078a5780820380516001836020036101000a031916815260200191505b50848103825287818151815260200191508051906020019080838360005b838110156107c35780820151818401526020810190506107a8565b50505050905090810190601f1680156107f05780820380516001836020036101000a031916815260200191505b50995050505050505050505060405180910390f35b600560006006600084815260200190815260200160002060020154815260200190815260200160002060009054906101000a900473ffffffffffffffffffffffffffffffffffffffff1673ffffffffffffffffffffffffffffffffffffffff163373ffffffffffffffffffffffffffffffffffffffff16141515610917576040517f08c379a00000000000000000000000000000000000000000000000000000000081526004018080602001828103825260288152602001807f4e6f742061757468656e7469636174656420746f20766572696679207468697381526020017f206465677265652e00000000000000000000000000000000000000000000000081525060400191505060405180910390fd5b6006600082815260200190815260200160002060030160009054906101000a900460ff161515156109b0576040517f08c379a000000000000000000000000000000000000000000000000000000000815260040180806020018281038252601b8152602001807f44656772656520697320616c726561647920766572696669656421000000000081525060200191505060405180910390fd5b60016006600083815260200190815260200160002060030160006101000a81548160ff02191690831515021790555050565b600460003373ffffffffffffffffffffffffffffffffffffffff1673ffffffffffffffffffffffffffffffffffffffff16815260200190815260200160002060040160149054906101000a900460ff16151515610acd576040517f08c379a000000000000000000000000000000000000000000000000000000000815260040180806020018281038252602c8152602001807f4164647265737320616c726561647920686173206120756e697665727369747981526020017f20726567697374657265642e000000000000000000000000000000000000000081525060400191505060405180910390fd5b600360003373ffffffffffffffffffffffffffffffffffffffff1673ffffffffffffffffffffffffffffffffffffffff16815260200190815260200160002060060160149054906101000a900460ff16151515610bb8576040517f08c379a000000000000000000000000000000000000000000000000000000000815260040180806020018281038252603d8152602001807f416464726573732063616e6e6f74206861766520626f74682073747564656e7481526020017f20616e6420756e697665727369747920726567697374726174696f6e2e00000081525060400191505060405180910390fd5b600080815480929190600101919050555033600560008054815260200190815260200160002060006101000a81548173ffffffffffffffffffffffffffffffffffffffff021916908373ffffffffffffffffffffffffffffffffffffffff16021790555060c06040519081016040528060005481526020018481526020018381526020018281526020013373ffffffffffffffffffffffffffffffffffffffff16815260200160011515815250600460003373ffffffffffffffffffffffffffffffffffffffff1673ffffffffffffffffffffffffffffffffffffffff168152602001908152602001600020600082015181600001556020820151816001019080519060200190610cca9291906116de565b506040820151816002019080519060200190610ce79291906116de565b506060820151816003019080519060200190610d049291906116de565b5060808201518160040160006101000a81548173ffffffffffffffffffffffffffffffffffffffff021916908373ffffffffffffffffffffffffffffffffffffffff16021790555060a08201518160040160146101000a81548160ff021916908315150217905550905050505050565b60025481565b60005481565b60066020528060005260406000206000915090508060000154908060010154908060020154908060030160009054906101000a900460ff16905084565b600360003373ffffffffffffffffffffffffffffffffffffffff1673ffffffffffffffffffffffffffffffffffffffff16815260200190815260200160002060060160149054906101000a900460ff16151515610ea8576040517f08c379a00000000000000000000000000000000000000000000000000000000081526004018080602001828103825260298152602001807f4164647265737320616c72656164792068617320612073747564656e7420726581526020017f67697374657265642e000000000000000000000000000000000000000000000081525060400191505060405180910390fd5b600460003373ffffffffffffffffffffffffffffffffffffffff1673ffffffffffffffffffffffffffffffffffffffff16815260200190815260200160002060040160149054906101000a900460ff16151515610f93576040517f08c379a000000000000000000000000000000000000000000000000000000000815260040180806020018281038252603d8152602001807f416464726573732063616e6e6f74206861766520626f74682073747564656e7481526020017f20616e6420756e697665727369747920726567697374726174696f6e2e00000081525060400191505060405180910390fd5b6001600081548092919060010191905055506101006040519081016040528060015481526020018681526020018581526020018481526020018381526020018281526020013373ffffffffffffffffffffffffffffffffffffffff16815260200160011515815250600360003373ffffffffffffffffffffffffffffffffffffffff1673ffffffffffffffffffffffffffffffffffffffff1681526020019081526020016000206000820151816000015560208201518160010190805190602001906110609291906116de565b50604082015181600201908051906020019061107d9291906116de565b50606082015181600301908051906020019061109a9291906116de565b5060808201518160040190805190602001906110b79291906116de565b5060a0820151816005015560c08201518160060160006101000a81548173ffffffffffffffffffffffffffffffffffffffff021916908373ffffffffffffffffffffffffffffffffffffffff16021790555060e08201518160060160146101000a81548160ff0219169083151502179055509050506111386001548261164b565b5050505050565b6003602052806000526040600020600091509050806000015490806001018054600181600116156101000203166002900480601f0160208091040260200160405190810160405280929190818152602001828054600181600116156101000203166002900480156111f15780601f106111c6576101008083540402835291602001916111f1565b820191906000526020600020905b8154815290600101906020018083116111d457829003601f168201915b505050505090806002018054600181600116156101000203166002900480601f01602080910402602001604051908101604052809291908181526020018280546001816001161561010002031660029004801561128f5780601f106112645761010080835404028352916020019161128f565b820191906000526020600020905b81548152906001019060200180831161127257829003601f168201915b505050505090806003018054600181600116156101000203166002900480601f01602080910402602001604051908101604052809291908181526020018280546001816001161561010002031660029004801561132d5780601f106113025761010080835404028352916020019161132d565b820191906000526020600020905b81548152906001019060200180831161131057829003601f168201915b505050505090806004018054600181600116156101000203166002900480601f0160208091040260200160405190810160405280929190818152602001828054600181600116156101000203166002900480156113cb5780601f106113a0576101008083540402835291602001916113cb565b820191906000526020600020905b8154815290600101906020018083116113ae57829003601f168201915b5050505050908060050154908060060160009054906101000a900473ffffffffffffffffffffffffffffffffffffffff16908060060160149054906101000a900460ff16905088565b60015481565b6004602052806000526040600020600091509050806000015490806001018054600181600116156101000203166002900480601f0160208091040260200160405190810160405280929190818152602001828054600181600116156101000203166002900480156114cc5780601f106114a1576101008083540402835291602001916114cc565b820191906000526020600020905b8154815290600101906020018083116114af57829003601f168201915b505050505090806002018054600181600116156101000203166002900480601f01602080910402602001604051908101604052809291908181526020018280546001816001161561010002031660029004801561156a5780601f1061153f5761010080835404028352916020019161156a565b820191906000526020600020905b81548152906001019060200180831161154d57829003601f168201915b505050505090806003018054600181600116156101000203166002900480601f0160208091040260200160405190810160405280929190818152602001828054600181600116156101000203166002900480156116085780601f106115dd57610100808354040283529160200191611608565b820191906000526020600020905b8154815290600101906020018083116115eb57829003601f168201915b5050505050908060040160009054906101000a900473ffffffffffffffffffffffffffffffffffffffff16908060040160149054906101000a900460ff16905086565b60026000815480929190600101919050555060806040519081016040528060025481526020018381526020018281526020016000151581525060066000600254815260200190815260200160002060008201518160000155602082015181600101556040820151816002015560608201518160030160006101000a81548160ff0219169083151502179055509050505050565b828054600181600116156101000203166002900490600052602060002090601f016020900481019282601f1061171f57805160ff191683800117855561174d565b8280016001018555821561174d579182015b8281111561174c578251825591602001919060010190611731565b5b50905061175a919061175e565b5090565b61178091905b8082111561177c576000816000905550600101611764565b5090565b905600a165627a7a72305820384bcd65539aa9d1315a3ea17c7ce6959099b631cb24c0ba4fbdf48599451ba20029",
  "source": "pragma solidity ^0.4.19;\n\n/**\n * Smart contract for the student attestation\n */\ncontract Attestation {\n    uint public universityCount;\n    struct University {\n        uint id;\n        string name;\n        string location;\n        string email;\n        address universityAddr;\n        bool isInit;\n    }\n\n    uint public studentCount;\n    struct Student {\n        uint id;\n        string name;\n        string dob;\n        string email;\n        string gpa;\n        uint universityId;\n        address studentAddr;\n        bool isInit;\n    }\n\n    uint public degreeCount;\n    struct Degree {\n        uint id;\n        uint studentId;\n        uint universityId;\n        bool verified;\n    }\n\n    mapping(address => Student) public students;\n    mapping(address => University) public universities;\n    mapping(uint => address) private helperMapping;\n    mapping(uint => Degree) public degrees;\n\n    constructor() public {\n        universityCount = 0;\n        studentCount = 0;\n        degreeCount = 0;\n    }\n\n    /**\n     * Adds a new university on the N/w and updates the count.\n     */\n    function addUniversity(string name, string location, string email) public {\n        require(!universities[msg.sender].isInit, \"Address already has a university registered.\");\n        require(!students[msg.sender].isInit, \"Address cannot have both student and university registration.\");\n        universityCount++;\n        helperMapping[universityCount] = msg.sender;\n        universities[msg.sender] = University(\n            universityCount, name, location, email, msg.sender, true\n        );\n    }\n\n    /**\n     * Adds a new student on the N/w and updates the count.\n     */\n    function addStudent(string name, string dob, string email, string gpa, uint universityId) public {\n        require(!students[msg.sender].isInit, \"Address already has a student registered.\");\n        require(!universities[msg.sender].isInit, \"Address cannot have both student and university registration.\");\n        studentCount++;\n        students[msg.sender] = Student(\n            studentCount, name, dob, email, gpa, universityId, msg.sender, true\n        );\n        addDegree(studentCount, universityId);\n    }\n\n    /**\n     * Adds a new degree that is awaiting approval\n     */\n    function addDegree(uint studentId, uint universityId) private {\n        degreeCount++;\n        degrees[degreeCount] = Degree(\n            degreeCount, studentId, universityId, false\n        );\n    }\n\n    /**\n     * Approves a pending degree by setting the verified flag to true.\n     */\n    function verifyDegree(uint degreeId) public {\n        require(msg.sender == helperMapping[degrees[degreeId].universityId], \"Not authenticated to verify this degree.\");\n        require(!degrees[degreeId].verified, \"Degree is already verified!\");\n        degrees[degreeId].verified = true;\n    }\n}",
  "sourcePath": "/home/jimil/Desktop/GBHack2018/Attestation/contracts/Attestation.sol",
  "compiler": {
    "name": "solc",
    "version": "0.4.24+commit.e67f0147.Emscripten.clang"
  },
  "schemaVersion": "2.0.1",
  "updatedAt": "2018-12-21T07:50:33.359Z"
}